:020000040800F2
:10000000005000205D080008650700086D07000823
:100010009D070008A5070008AD07000800000000C4
:10002000000000000000000000000000B50700080C
:10003000C107000800000000CD070008D90700082C
:10004000A5080008A5080008A5080008A5080008DC
:10005000A5080008A5080008A5080008A5080008CC
:10006000A5080008A5080008A5080008A5080008BC
:10007000A5080008A5080008A5080008A5080008AC
:10008000A5080008A5080008A5080008A50800089C
:10009000A5080008A5080008A5080008A50800088C
:1000A000A5080008A5080008A5080008A50800087C
:1000B000A5080008A5080008A5080008A50800086C
:1000C000A5080008A5080008A5080008A50800085C
:1000D000A5080008A5080008A5080008A50800084C
:1000E000A5080008A5080008A508000800000000F1
:1000F0000000000000000000000000000000000000
:0C01000000000000000000005FF808F1A3
:10010C0010B5054C237833B9044B13B10448AFF345
:10011C0000800123237010BD60000020000000004F
:10012C00102A000808B5034B1BB103490348AFF371
:10013C00008008BD0000000064000020102A0008A8
:10014C00034613F8012B002AFBD1181A013870470B
:10015C0090B5A3B002AF642313223749374801F09E
:10016C001DFD07F178014FF0FF330522334801F0F4
:10017C00A0FD0346002BF4D107F17803052230498A
:10018C00184601F099FF0346002BEAD1642305229F
:10019C002C492A4801F002FD07F164014FF0FF33AE
:1001AC001422264801F085FD0346002BD9D1642387
:1001BC0011222549214801F0F1FCB96EFC6E3B6F10
:1001CC007A6F38460192009323460A461F4901F084
:1001DC0051FF3B461846FFF7B3FF03469AB2394628
:1001EC006423164801F0DAFC07F16403184600F0AA
:1001FC0033F80346002B19D16423172214490F48F6
:10020C0001F0CCFC00F06AF80346002B10D107F18A
:10021C006403184600F098F80346002B0AD16423B7
:10022C0011220C49054801F0B9FC9AE700BF98E788
:10023C0000BF96E700BF94E7282A00087C00002046
:10024C003C2A0008442A00084C2A0008602A0008AE
:10025C008C2A0008A42A000880B582B000AF786010
:10026C007B685B68174A934207D064231D221649AA
:10027C00164801F093FC01231FE07B689B68002B60
:10028C0007D164231C221249104801F087FC01237A
:10029C0013E07B689B68B3F53C4F07D964231D22A0
:1002AC000C490A4801F07AFC012306E064230B2276
:1002BC000949064801F072FC002318460837BD4670
:1002CC0080BD00BFF0DEBC1AB82A00087C000020FC
:1002DC00D82A0008F82A0008182B000880B586B028
:1002EC0000AF00237B6000F0B3FC0023BB60124B1B
:1002FC003B612F237B613A1D07F108031146184619
:10030C0000F08EFD0346002B09D000F0C7FC6423DF
:10031C0014220A490A4801F041FC012308E000F0CC
:10032C00BDFC642310220749054801F037FC00236B
:10033C0018461837BD4680BD00440008242B000821
:10034C007C0000203C2B000880B5C6B000AF07F540
:10035C008C73A3F58A73186007F58C73A3F58A73F5
:10036C001B689B68C7F814312F4BC7F80C314AE057
:10037C00D7F81431B3F5807F04D94FF48073C7F8E4
:10038C00103103E0D7F81431C7F81031D7F8103119
:10039C009AB207F10C014FF0FF33244801F089FCAD
:1003AC000346002B07D06423152221491F4801F076
:1003BC00F5FB012332E007F10C03D7F810211946A5
:1003CC00D7F80C0100F03CF80346002B07D064234F
:1003DC0014221849154801F0E1FB01231EE06423A7
:1003EC0005221549114801F0D9FBD7F80C21D7F893
:1003FC0010311344C7F80C31D7F81421D7F8103149
:10040C00D31AC7F81431D7F81431002BB0D16423A8
:10041C0013220A49054801F0C1FB0023184607F5D1
:10042C008C77BD4680BD00BF004400087C000020D6
:10043C00502B0008682B0008442A0008802B000869
:10044C00B0B586B000AFF860B9607A6000F000FC1F
:10045C0000233B6132E0BA683B6913441B78FB8292
:10046C003B6901337A689A420DD93B690133BA680A
:10047C0013441B781BB21B021AB2B7F91630134384
:10048C001BB2FB8203E0FB8A63F0FF03FB82FB8A57
:10049C0000221C46154622462B46F968012000F026
:1004AC0067FB0346002B03D000F0F8FB01230CE0A4
:1004BC00FB680233FB603B6902333B613A697B6842
:1004CC009A42C8D300F0EAFB002318461837BD4601
:1004DC00B0BD000080B500AF00F0E0F900F014F8FA
:1004EC0000F078F800F04CF8FFF732FE4FF4806122
:1004FC00044800F0D9FE4FF47A7000F031FA00BFD6
:10050C00F4E700BF0008014080B590B000AF07F1E0
:10051C00180328220021184601F0DEFD3B1D0022A5
:10052C001A605A609A60DA601A610223BB61012377
:10053C00BB621023FB6200237B6307F11803184690
:10054C0000F0CCFE0346002B01D000F083F80F2303
:10055C007B600023BB600023FB6000233B61002316
:10056C007B613B1D0021184601F03AF90346002B34
:10057C0001D000F06FF800BF4037BD4680BD0000D1
:10058C0080B500AF114B124A1A60104B4FF4E13298
:10059C005A600E4B00229A600C4B0022DA600B4B17
:1005AC0000221A61094B0C225A61084B00229A61F5
:1005BC00064B0022DA61054801F0A0FA0346002B35
:1005CC0001D000F047F800BF80BD00BF7C000020C8
:1005DC000044004080B586B000AF07F1080300224C
:1005EC001A605A609A60DA60184B9B69174A43F09C
:1005FC0020039361154B9B6903F020037B607B68A0
:10060C00124B9B69114A43F0040393610F4B9B6996
:10061C0003F004033B603B6800224FF440610C483C
:10062C0000F02AFE4FF44063BB600123FB60002303
:10063C003B6102237B6107F108031946044800F073
:10064C0097FC00BF1837BD4680BD00BF00100240AC
:10065C000008014080B400AF72B600BF00BFFDE7D8
:10066C0080B485B000AF154B9B69144A43F001036D
:10067C009361124B9B6903F00103BB60BB680F4B8A
:10068C00DB690E4A43F08053D3610C4BDB6903F0FA
:10069C0080537B607B680A4B5B68FB60FB6823F0D4
:1006AC00E063FB60FB6843F00073FB60044AFB688B
:1006BC00536000BF1437BD4680BC70470010024029
:1006CC000000014080B588B000AF786007F11003DE
:1006DC0000221A605A609A60DA607B681B681B4AB9
:1006EC0093422FD11A4BDB69194A43F40033D3617F
:1006FC00174BDB6903F40033FB60FB68144B9B69FD
:10070C00134A43F004039361114B9B6903F00403F8
:10071C00BB60BB6804233B6102237B610323FB6149
:10072C0007F1100319460B4800F022FC08233B612B
:10073C0000237B610023BB6107F1100319460548B8
:10074C0000F016FC00BF2037BD4680BD00440040C1
:10075C00001002400008014080B400AF00BFFDE76C
:10076C0080B500AF642332220649074801F016FA1F
:10077C004FF48061054800F097FDFA2000F0F0F886
:10078C0000BFF5E7942B00087C0000200008014016
:10079C0080B400AF00BFFDE780B400AF00BFFDE741
:1007AC0080B400AF00BFFDE780B400AF00BFBD4612
:1007BC0080BC704780B400AF00BFBD4680BC7047A2
:1007CC0080B400AF00BFBD4680BC704780B500AFA1
:1007DC0000F0AAF800BF80BD80B586B000AF78608D
:1007EC00144A154BD31A7B617B693B61134B1B6815
:1007FC00002B02D1114B124A1A60104B1A687B68FD
:10080C0013443A699A4207D201F06EFC03460C225B
:10081C001A604FF0FF3309E0084B1B68FB60074B75
:10082C001A687B681344054A1360FB68184618372E
:10083C00BD4680BD0050002000040000C400002014
:10084C003802002080B400AF00BFBD4680BC7047AA
:10085C00FFF7F8FF0B480C490C4A002302E0D45870
:10086C00C4500433C4188C42F9D3094A094C0023F0
:10087C0001E013600432A242FBD301F03BFCFFF712
:10088C0029FE7047000000205C000020242C00088A
:10089C006000002038020020FEE7000080B500AFA9
:1008AC00084B1B68074A43F010031360032000F049
:1008BC002BF90F2000F008F8FFF7D2FE00231846A2
:1008CC0080BD00BF0020024080B582B000AF7860D0
:1008DC00124B1A68124B1B7819464FF47A73B3FB00
:1008EC00F1F3B2FBF3F3184600F035F90346002B95
:1008FC0001D001230EE07B680F2B0AD80022796807
:10090C004FF0FF3000F00BF9064A7B6813600023B0
:10091C0000E0012318460837BD4680BD00000020CA
:10092C00080000200400002080B400AF054B1B78A9
:10093C001A46054B1B681344034A136000BFBD469F
:10094C0080BC704708000020C800002080B400AFB5
:10095C00024B1B681846BD4680BC7047C80000207F
:10096C0080B584B000AF7860FFF7F0FFB8607B68AB
:10097C00FB60FB68B3F1FF3F05D00A4B1B781A46AE
:10098C00FB681344FB6000BFFFF7E0FF0246BB6847
:10099C00D31AFA689A42F7D800BF00BF1037BD4689
:1009AC0080BD00BF0800002080B485B000AF786027
:1009BC007B6803F00703FB600C4BDB68BB60BA6819
:1009CC004FF6FF031340BB60FB681A02BB6813436E
:1009DC0043F0BF6343F40033BB60044ABB68D3608D
:1009EC0000BF1437BD4680BC704700BF00ED00E06F
:1009FC0080B400AF044BDB681B0A03F007031846F6
:100A0C00BD4680BC704700BF00ED00E080B483B0F1
:100A1C0000AF03463960FB7197F90730002B0ADBF6
:100A2C003B68DAB20C4997F907301201D2B20B4489
:100A3C0083F800230AE03B68DAB20849FB7903F03B
:100A4C000F03043B1201D2B20B441A7600BF0C37D1
:100A5C00BD4680BC704700BF00E100E000ED00E047
:100A6C0080B489B000AFF860B9607A60FB6803F0BD
:100A7C000703FB61FB69C3F10703042B28BF0423A5
:100A8C00BB61FB690433062B02D9FB69033B00E015
:100A9C0000237B614FF0FF32BB6902FA03F3DA43A8
:100AAC00BB681A407B699A404FF0FF317B6901FAB1
:100ABC0003F3D9437B680B40134318462437BD46D8
:100ACC0080BC704780B582B000AF78607B68013B1A
:100ADC00B3F1807F01D301230FE00A4A7B68013B0D
:100AEC0053600F214FF0FF30FFF790FF054B0022B2
:100AFC009A60044B07221A60002318460837BD463B
:100B0C0080BD00BF10E000E080B582B000AF78601F
:100B1C007868FFF749FF00BF0837BD4680BD80B538
:100B2C0086B000AF0346B9607A60FB7300237B612B
:100B3C00FFF75EFF78617A68B9687869FFF790FF14
:100B4C00024697F90F3011461846FFF75FFF00BFBA
:100B5C001837BD4680BD80B582B000AF786078682C
:100B6C00FFF7B0FF034618460837BD4680BD0000AE
:100B7C00F0B587B000AFF860B960C7E90023012376
:100B8C00FB750023BB7500237B752F4B1B7E012B44
:100B9C0001D1022354E02C4B01221A764CF2503036
:100BAC0000F0A8F80346FB75FB7D002B44D1FB68D5
:100BBC00012B02D101237B7507E0FB68022B02D1CC
:100BCC0002237B7501E004237B750023BB752DE0AC
:100BDC00BB7D5A00BB6802EB030CBB7D1901D7E946
:100BEC000023C1F12006A1F1200022FA01F403FA3E
:100BFC0006F6344323FA00F0044323FA01F5A3B2BA
:100C0C001946604600F05AF84CF2503000F072F879
:100C1C000346FB750D4B1B690C4A23F00103136152
:100C2C00FB7D002B07D1BB7D0133BB75BA7D7B7D72
:100C3C009A42CDD300E000BF034B00221A76FB7D15
:100C4C0018461C37BD46F0BDD000002000200240E5
:100C5C0080B483B000AF0023FB710D4B1B6903F014
:100C6C008003002B0DD00A4B0A4A5A60084B0A4AE3
:100C7C005A60074B1B6903F08003002B01D0012342
:100C8C00FB71FB7918460C37BD4680BC704700BF22
:100C9C000020024023016745AB89EFCD80B400AF43
:100CAC00054B1B69044A43F080031361002318466B
:100CBC00BD4680BC704700BF0020024080B483B0AA
:100CCC0000AF78600B467B80084B0022DA61084B42
:100CDC001B69074A43F0010313617B687A881A8009
:100CEC0000BF0C37BD4680BC704700BFD000002051
:100CFC000020024080B584B000AF7860FFF726FE7C
:100D0C00F86010E07B68B3F1FF3F0CD07B68002BE0
:100D1C0007D0FFF71BFE0246FB68D31A7A689A428B
:100D2C0001D2032325E0154BDB6803F00103002BF4
:100D3C00E8D1124BDB6803F02003002B02D00F4BE1
:100D4C002022DA600D4BDB6803F01003002B0BD173
:100D5C000A4BDB6903F00103002B05D1074BDB6861
:100D6C0003F00403002B03D000F00AF8012300E089
:100D7C00002318461037BD4680BD00BF002002403E
:100D8C0080B483B000AF00237B60234BDB6803F09F
:100D9C001003002B09D0214BDB6943F002031F4ADF
:100DAC00D3617B6843F010037B601B4BDB6803F063
:100DBC000403002B09D0194BDB6943F00103174ADC
:100DCC00D3617B6843F004037B60134BDB6903F056
:100DDC000103002B0BD0114BDB6943F004030F4ACA
:100DEC00D3610D4BDB690C4A23F00103D3617B68A3
:100DFC0040F20112934206D1074BDB69064A23F0FD
:100E0C000103D36102E0044A7B68D36000BF0C3756
:100E1C00BD4680BC704700BF00200240D0000020BF
:100E2C0080B584B000AF786039600123FB73002378
:100E3C00BB602F4B1B7E012B01D1022353E02C4BAB
:100E4C0001221A767B681B68022B16D14CF25030AB
:100E5C00FFF750FF0346002B41D1012000F04CF866
:100E6C004CF25030FFF746FF0346FB73214B1B69D6
:100E7C00204A23F00403136131E04CF25030FFF7A9
:100E8C0039FF0346002B2AD13B684FF0FF321A6022
:100E9C007B689B68BB6019E0B86800F049F84CF2BD
:100EAC005030FFF727FF0346FB73124B1B69114AA7
:100EBC0023F002031361FB7B002B03D03B68BA6861
:100ECC001A600CE0BB6803F58063BB607B68DB6871
:100EDC009A027B689B681344BA689A42DCD3044B31
:100EEC0000221A76FB7B18461037BD4680BD00BF2A
:100EFC00D00000200020024080B483B000AF7860A6
:100F0C00094B0022DA61094B1B69084A43F00403C0
:100F1C001361064B1B69054A43F04003136100BF84
:100F2C000C37BD4680BC7047D0000020002002402A
:100F3C0080B483B000AF78600B4B0022DA610B4BAE
:100F4C001B690A4A43F002031361084A7B68536128
:100F5C00064B1B69054A43F04003136100BF0C3775
:100F6C00BD4680BC704700BFD0000020002002406E
:100F7C0080B48BB000AF7860396000237B620023B3
:100F8C003B6269E101227B6A02FA03F3FB613B6875
:100F9C001B68FA691340BB61BA69FB699A4240F05D
:100FAC0058813B685B689A4A93425ED0984A934258
:100FBC0075D8984A934258D0964A93426FD8964A1D
:100FCC00934252D0944A934269D8944A93424CD05B
:100FDC00924A934263D8924A934246D0904A9342A3
:100FEC005DD8122B2AD8122B59D801A252F823F013
:100FFC00771000085110000863100008A5100008B5
:10100C00AB100008AB100008AB100008AB100008C8
:10101C00AB100008AB100008AB100008AB100008B8
:10102C00AB100008AB100008AB100008AB100008A8
:10103C00AB100008591000086D100008794A934253
:10104C0013D02CE03B68DB683B6229E03B68DB6833
:10105C0004333B6224E03B68DB6808333B621FE0EF
:10106C003B68DB680C333B621AE03B689B68002BE7
:10107C0002D104233B6213E03B689B68012B05D132
:10108C0008233B627B68FA691A6109E008233B621A
:10109C007B68FA695A6103E000233B6200E000BF01
:1010AC00BB69FF2B01D87B6801E07B6804337B6153
:1010BC00BB69FF2B02D87B6A9B0002E07B6A083B72
:1010CC009B003B617B691A680F213B6901FA03F3B2
:1010DC00DB431A40396A3B6901FA03F31A437B6913
:1010EC001A603B685B6803F08053002B00F0B18002
:1010FC004D4B9B694C4A43F0010393614A4B9B69EE
:10110C0003F00103BB60BB68484A7B6A9B0802334F
:10111C0052F82330FB607B6A03F003039B000F2221
:10112C0002FA03F3DB43FA681340FB607B68404A26
:10113C00934213D07B683F4A93420DD07B683E4A62
:10114C00934207D07B683D4A934201D1032306E0CA
:10115C00042304E0022302E0012300E000237A6A66
:10116C0002F0030292009340FA681343FB602F498C
:10117C007B6A9B080233FA6841F823203B685B6862
:10118C0003F48013002B06D02D4B9A682C49BB69B5
:10119C0013438B6006E02A4B9A68BB69DB432849F2
:1011AC0013408B603B685B6803F40013002B06D084
:1011BC00234BDA682249BB691343CB6006E0204B12
:1011CC00DA68BB69DB431E491340CB603B685B6844
:1011DC0003F40033002B06D0194B5A681849BB692D
:1011EC0013434B6006E0164B5A68BB69DB4314494A
:1011FC0013404B603B685B6803F48033002B21D0B9
:10120C000F4B1A680E49BB6913430B6021E000BFFA
:10121C0000003210000031100000221000002110DC
:10122C0000001210000011100010024000000140DC
:10123C0000080140000C0140001001400014014066
:10124C00000401400B4B1A68BB69DB43094913408E
:10125C000B607B6A01337B623B681A687B6A22FAFB
:10126C0003F3002B7FF48EAE00BF00BF2C37BD46BE
:10127C0080BC70470004014080B483B000AF78603C
:10128C000B467B8013467B707B78002B03D07A88CF
:10129C007B681A6103E07B881A047B681A6100BFC3
:1012AC000C37BD4680BC704780B485B000AF786009
:1012BC000B467B807B68DB68FB607A88FB6813409D
:1012CC001A04FB68D9437B880B401A437B681A616C
:1012DC0000BF1437BD4680BC7047000080B586B097
:1012EC0000AF78607B68002B01D1012372E27B6830
:1012FC001B6803F00103002B00F08780924B5B68A6
:10130C0003F00C03042B0CD08F4B5B6803F00C0325
:10131C00082B12D18C4B5B6803F48033B3F5803F00
:10132C000BD1894B1B6803F40033002B6CD07B680A
:10133C005B68002B68D101234CE27B685B68B3F5DA
:10134C00803F06D1804B1B687F4A43F48033136087
:10135C002EE07B685B68002B0CD17B4B1B687A4AB8
:10136C0023F480331360784B1B68774A23F4802373
:10137C0013601DE07B685B68B3F5A02F0CD1724B3A
:10138C001B68714A43F4802313606F4B1B686E4AD1
:10139C0043F4803313600BE06B4B1B686A4A23F4F5
:1013AC0080331360684B1B68674A23F480231360F7
:1013BC007B685B68002B13D0FFF7C8FA386108E034
:1013CC00FFF7C4FA02463B69D31A642B01D90323F5
:1013DC0000E25D4B1B6803F40033002BF0D014E0EB
:1013EC00FFF7B4FA386108E0FFF7B0FA02463B6940
:1013FC00D31A642B01D90323ECE1534B1B6803F480
:10140C000033002BF0D100E000BF7B681B6803F0B9
:10141C000203002B63D04C4B5B6803F00C03002BD6
:10142C000BD0494B5B6803F00C03082B1CD1464BCB
:10143C005B6803F48033002B16D1434B1B6803F01D
:10144C000203002B05D07B681B69012B01D0012303
:10145C00C0E13D4B1B6823F0F8027B685B69DB0045
:10146C00394913430B603AE07B681B69002B20D091
:10147C00364B01221A60FFF769FA386108E0FFF772
:10148C0065FA02463B69D31A022B01D90323A1E169
:10149C002D4B1B6803F00203002BF0D02A4B1B686A
:1014AC0023F0F8027B685B69DB00274913430B6070
:1014BC0015E0264B00221A60FFF748FA386108E065
:1014CC00FFF744FA02463B69D31A022B01D90323D6
:1014DC0080E11D4B1B6803F00203002BF0D17B68ED
:1014EC001B6803F00803002B3AD07B689B69002B28
:1014FC0019D0174B01221A60FFF728FA386108E05F
:10150C00FFF724FA02463B69D31A022B01D90323B5
:10151C0060E10D4B5B6A03F00203002BF0D001205D
:10152C0000F0CEFA1CE00A4B00221A60FFF70EFA0C
:10153C0038610FE0FFF70AFA02463B69D31A022B17
:10154C0008D9032346E100BF0010024000004242CC
:10155C0080044242924B5B6A03F00203002BE9D1F8
:10156C007B681B6803F00403002B00F0A6800023AB
:10157C00FB758B4BDB6903F08053002B0DD1884B33
:10158C00DB69874A43F08053D361854BDB6903F0F9
:10159C008053BB60BB680123FB75824B1B6803F453
:1015AC008073002B18D17F4B1B687E4A43F48073E9
:1015BC001360FFF7CBF9386108E0FFF7C7F9024673
:1015CC003B69D31A642B01D9032303E1754B1B68C8
:1015DC0003F48073002BF0D07B68DB68012B06D101
:1015EC006F4B1B6A6E4A43F0010313622DE07B685C
:1015FC00DB68002B0CD16A4B1B6A694A23F0010390
:10160C001362674B1B6A664A23F0040313621CE0E7
:10161C007B68DB68052B0CD1614B1B6A604A43F07D
:10162C00040313625E4B1B6A5D4A43F001031362B1
:10163C000BE05B4B1B6A5A4A23F001031362584BB5
:10164C001B6A574A23F0040313627B68DB68002B88
:10165C0015D0FFF77BF938610AE0FFF777F90246FE
:10166C003B69D31A41F28832934201D90323B1E08A
:10167C004B4B1B6A03F00203002BEED014E0FFF778
:10168C0065F938610AE0FFF761F902463B69D31A44
:10169C0041F28832934201D903239BE0404B1B6AF1
:1016AC0003F00203002BEED1FB7D012B05D13C4B4B
:1016BC00DB693B4A23F08053D3617B68DB69002BE9
:1016CC0000F08780364B5B6803F00C03082B61D06D
:1016DC007B68DB69022B46D1334B00221A60FFF783
:1016EC0035F9386108E0FFF731F902463B69D31A46
:1016FC00022B01D903236DE0294B1B6803F0007307
:10170C00002BF0D17B681B6AB3F5803F08D1244BCA
:10171C005B6823F400327B689B68214913434B6060
:10172C001F4B5B6823F474127B68196A7B685B6AD5
:10173C000B431B4913434B601B4B01221A60FFF7F1
:10174C0005F9386108E0FFF701F902463B69D31A45
:10175C00022B01D903233DE0114B1B6803F00073EE
:10176C00002BF0D035E0104B00221A60FFF7EEF89A
:10177C00386108E0FFF7EAF802463B69D31A022BFE
:10178C0001D9032326E0064B1B6803F00073002BE2
:10179C00F0D11EE07B68DB69012B07D1012319E036
:1017AC000010024000700040600042420B4B5B682E
:1017BC00FB60FB6803F480327B681B6A9A4206D19B
:1017CC00FB6803F470127B685B6A9A4201D00123B8
:1017DC0000E0002318461837BD4680BD00100240BB
:1017EC0080B584B000AF786039607B68002B01D184
:1017FC000123D0E06A4B1B6803F007033A689A4256
:10180C0010D9674B1B6823F0070265493B681343EB
:10181C000B60634B1B6803F007033A689A4201D0D4
:10182C000123B8E07B681B6803F00203002B20D077
:10183C007B681B6803F00403002B05D0594B5B68D5
:10184C00584A43F4E06353607B681B6803F0080359
:10185C00002B05D0534B5B68524A43F460535360E2
:10186C00504B5B6823F0F0027B689B684D49134337
:10187C004B607B681B6803F00103002B40D07B6836
:10188C005B68012B07D1474B1B6803F40033002B1B
:10189C0015D101237FE07B685B68022B07D1414B9C
:1018AC001B6803F00073002B09D1012373E03D4B3F
:1018BC001B6803F00203002B01D101236BE0394BB1
:1018CC005B6823F003027B685B68364913434B600B
:1018DC00FFF73CF8F8600AE0FFF738F80246FB68BF
:1018EC00D31A41F28832934201D9032353E02D4B92
:1018FC005B6803F00C027B685B689B009A42EBD13F
:10190C00274B1B6803F007033A689A4210D2244B0A
:10191C001B6823F0070222493B6813430B60204BE2
:10192C001B6803F007033A689A4201D0012332E0A6
:10193C007B681B6803F00403002B08D0194B5B6811
:10194C0023F4E0627B68DB68164913434B607B68C9
:10195C001B6803F00803002B09D0124B5B6823F4BF
:10196C0060527B681B69DB000E4913434B6000F02F
:10197C0021F802460B4B5B681B0903F00F030A4965
:10198C00CB5C22FA03F3094A1360094B1B68184617
:10199C00FEF79AFF002318461037BD4680BD00BFE6
:1019AC000020024000100240B42B00080000002070
:1019BC000400002080B487B000AF0023FB6000233C
:1019CC00BB6000237B6100237B6000233B611E4BCB
:1019DC005B68FB60FB6803F00C03042B02D0082B44
:1019EC0003D027E0194B3B6127E0FB689B0C03F00D
:1019FC000F03174AD35C7B60FB6803F48033002B26
:101A0C0010D0114B5B685B0C03F00103114AD35CE3
:101A1C00BB607B680D4A03FB02F2BB68B2FBF3F3BD
:101A2C007B6104E07B680C4A02FB03F37B617B69FE
:101A3C003B6102E0054B3B6100BF3B6918461C371C
:101A4C00BD4680BC704700BF0010024000127A00F7
:101A5C00CC2B0008DC2B000800093D0080B400AF43
:101A6C00024B1B681846BD4680BC70470000002026
:101A7C0080B500AFFFF7F2FF0246054B5B681B0A0F
:101A8C0003F007030349CB5C22FA03F3184680BD2D
:101A9C0000100240C42B000880B500AFFFF7DEFF3A
:101AAC000246054B5B68DB0A03F007030349CB5C7A
:101ABC0022FA03F3184680BD00100240C42B000824
:101ACC0080B485B000AF78600A4B1B680A4AA2FB51
:101ADC0003235B0A7A6802FB03F3FB6000BFFB681D
:101AEC005A1EFA60002BF9D100BF00BF1437BD4657
:101AFC0080BC704700000020D34D621080B582B0CE
:101B0C0000AF78607B68002B01D1012342E07B6839
:101B1C0093F84130DBB2002B06D17B68002283F8AE
:101B2C0040207868FEF7CEFD7B68242283F84120A4
:101B3C007B681B68DA687B681B6822F40052DA60E9
:101B4C00786800F009FA7B681B681A697B681B6867
:101B5C0022F490421A617B681B685A697B681B6887
:101B6C0022F02A025A617B681B68DA687B681B6862
:101B7C0042F40052DA607B6800225A647B682022AF
:101B8C0083F841207B68202283F842207B68002266
:101B9C005A63002318460837BD4680BD80B58AB00D
:101BAC0002AFF860B9603B601346FB8000237B6199
:101BBC00FB6893F84130DBB2202B75D1BB68002B4E
:101BCC0002D0FB88002B01D101236EE0FB680022C0
:101BDC005A64FB68212283F84120FEF7B7FE786136
:101BEC00FB68FA889A84FB68FA88DA84FB689B683D
:101BFC00B3F5805F08D1FB681B69002B04D100236F
:101C0C00FB61BB68BB6103E0BB68FB610023BB618C
:101C1C002EE03B6800937B6900228021F86800F07D
:101C2C00DFF80346002B05D0FB68202283F8412007
:101C3C0003233AE0FB69002B0BD1BB691B881A46C6
:101C4C00FB681B68C2F308025A60BB690233BB61B4
:101C5C0007E0FB691A78FB681B685A60FB69013363
:101C6C00FB61FB68DB8C9BB2013B9AB2FB68DA84AC
:101C7C00FB68DB8C9BB2002BCBD13B6800937B6960
:101C8C0000224021F86800F0ABF80346002B05D089
:101C9C00FB68202283F84120032306E0FB68202206
:101CAC0083F84120002300E0022318462037BD466C
:101CBC0080BD80B58AB002AFF860B9603B60134656
:101CCC00FB8000237B61FB6893F84230DBB2202B56
:101CDC0040F08180BB68002B02D0FB88002B01D127
:101CEC00012379E0FB6800225A64FB68222283F806
:101CFC004220FB6800221A63FEF728FE7861FB681D
:101D0C00FA889A85FB68FA88DA85FB689B68B3F5D4
:101D1C00805F08D1FB681B69002B04D10023FB6199
:101D2C00BB68BB6103E0BB68FB610023BB6147E0A0
:101D3C003B6800937B6900222021F86800F050F882
:101D4C000346002B05D0FB68202283F84220032396
:101D5C0042E0FB69002B0CD1FB681B685B689BB2F3
:101D6C00C3F308039AB2BB691A80BB690233BB6127
:101D7C001FE0FB689B68B3F5805F07D0FB689B682E
:101D8C00002B0AD1FB681B69002B06D1FB681B6872
:101D9C005B68DAB2FB691A7008E0FB681B685B6869
:101DAC00DBB203F07F03DAB2FB691A70FB69013313
:101DBC00FB61FB68DB8D9BB2013B9AB2FB68DA8559
:101DCC00FB68DB8D9BB2002BB2D1FB68202283F821
:101DDC004220002300E0022318462037BD4680BD78
:101DEC0080B586B000AFF860B9603B601346FB71FC
:101DFC003BE03B6AB3F1FF3F37D0FEF7A7FD02464D
:101E0C003B68D31A3A6A9A4202D33B6A002B01D13F
:101E1C0003233AE0FB681B68DB6803F00403002B28
:101E2C0023D0BB68802B20D0BB68402B1DD0FB6817
:101E3C001B681B6803F00803082B16D100237B6179
:101E4C00FB681B681B687B61FB681B685B687B61BC
:101E5C007B69F86800F01DF8FB6808225A64FB687F
:101E6C00002283F8402001230FE0FB681B681A68EE
:101E7C00BB681340BA689A420CBF01230023DBB243
:101E8C001A46FB799A42B4D0002318461837BD463F
:101E9C0080BD80B495B000AF78607B681B680C3354
:101EAC007B637B6B53E8003F3B633B6B23F490738A
:101EBC00FB647B681B680C33FA6C3A64FB63F96B4C
:101ECC003A6C41E80023BB63BB6B002BE5D17B680C
:101EDC001B6814333B623B6A53E8003FFB61FB69B0
:101EEC0023F00103BB647B681B681433BA6CFA6281
:101EFC00BB62B96AFA6A41E800237B627B6A002BF9
:101F0C00E5D17B681B6B012B19D17B681B680C33EB
:101F1C00FB60FB6853E8003FBB60BB6823F0100319
:101F2C007B647B681B680C337A6CBA617B61796962
:101F3C00BA6941E800233B613B69002BE5D17B6822
:101F4C00202283F842207B6800221A6300BF54379A
:101F5C00BD4680BC7047000080B584B000AF78608F
:101F6C007B681B681B6923F440517B68DA687B68CB
:101F7C001B680A431A617B689A687B681B691A4361
:101F8C007B685B691343BB607B681B68DB6823F46D
:101F9C00B05323F00C037A681268B9680B43D36012
:101FAC007B681B685B6923F440717B689A697B686A
:101FBC001B680A435A617B681B682C4A934203D105
:101FCC00FFF76AFDF86002E0FFF752FDF860FA686F
:101FDC0013469B0013449A001A447B685B689B0071
:101FEC00B2FBF3F3224AA2FB03235B091901FA6843
:101FFC0013469B0013449A001A447B685B689B0051
:10200C00B2FBF3F21A4BA3FB02035B09642000FB47
:10201C0003F3D31A1B013233154AA2FB03235B09CA
:10202C0003F0F0031944FA6813469B0013449A001A
:10203C001A447B685B689B00B2FBF3F20C4BA3FB6E
:10204C0002035B09642000FB03F3D31A1B01323338
:10205C00074AA2FB03235B0903F00F027B681B6892
:10206C000A449A6000BF1037BD4680BD003801405D
:10207C001F85EB510EB46FF0004110B500249DB0DC
:10208C001FAB02900690079104910948094953F837
:10209C00042B0591006802A901931B9400F0A6F98A
:1020AC00029B1C701DB0BDE8104003B0704700BF10
:1020BC000C0000200802FFFF10B5013902449042C9
:1020CC0001D1002005E0037811F8014FA34201D0A3
:1020DC00181B10BD0130F2E703460244934200D1B5
:1020EC00704703F8011BF9E7014B1868704700BFF4
:1020FC000C00002070B500260C4D0D4B5B1B9C108A
:10210C00A64209D1002600F07DFC0A4D0A4B5B1B50
:10211C009C10A64205D170BD55F8043B984701367A
:10212C00EEE755F8043B98470136F2E71C2C000803
:10213C001C2C00081C2C0008202C00087047704731
:10214C0038B50546002940D051F8043C0C1F002B33
:10215C00B8BFE41800F0DEF81C4A136833B96360AA
:10216C0014602846BDE8384000F0DAB8A34208D91C
:10217C00206821188B4201BF19685B68091821601F
:10218C00EDE71A465B680BB1A342FAD911685018F7
:10219C00A0420BD120680144501883421160E0D159
:1021AC0018685B68084410605360DAE702D90C23A6
:1021BC002B60D6E7206821188B4201BF19685B6839
:1021CC000918216063605460CBE738BD34020020ED
:1021DC0070B50F4E0C463168054611B900F0B0FBD6
:1021EC0030602146284600F0ABFB431C03D14FF076
:1021FC00FF34204670BDC41C24F00304A042F8D068
:10220C00211A284600F09CFB0130F2D1EFE700BF09
:10221C00300200202DE9F843CD1C25F003050835CC
:10222C000C2D38BF0C25002D064601DBA94204D924
:10223C000C2333600020BDE8F883DFF8D48000F075
:10224C0069F8D8F800301C4644BB29463046FFF7E5
:10225C00BFFF431C044658D1D8F800402746002F36
:10226C0043D1002C4BD023683946304604EB03098C
:10227C0000F066FB814542D1216830466D1A294633
:10228C00FFF7A6FF01303AD023682B442360D8F81F
:10229C0000305A6862BBC8F800700FE02268521B0D
:1022AC0020D40B2A17D96119A342256018BF596095
:1022BC00636808BFC8F8001062514B60304600F0EC
:1022CC002FF804F10B00231D20F00700C21A1CBFCD
:1022DC001B1AA350AFE76268A3420CBFC8F80020DA
:1022EC005A60EBE723466468AEE73C467F68B6E786
:1022FC001A465B68A342FBD100235360DEE70C2334
:10230C003046336000F00CF894E70560D6E700BF68
:10231C00340200200148FFF711BF00BF2C0200203F
:10232C000148FFF70CBF00BF2C0200202DE9F0473D
:10233C001F468E688246BE420C469046334653D8A2
:10234C00B1F90C0010F4906F2BD065692368096902
:10235C0005EB4505A3EB010905EBD5757B1C6D1051
:10236C004B44AB422A4684BF1D462A46430527D51B
:10237C0011465046FFF74EFF064658B34A462169B0
:10238C0000F0FCFAA38923F4906343F08003A3814B
:10239C0026614E4426603B463E466561A5EB090529
:1023AC00A5601F463A464146206800F0AFFA00206F
:1023BC00A3689B1BA36023683B442360BDE8F087A4
:1023CC00504600F0E9FA06460028E1D15046216952
:1023DC00FFF7B6FE0C23CAF80030A3894FF0FF308C
:1023EC0043F04003A381E9E73E46DBE72DE9F047E4
:1023FC001F468B8906461B060D4614469CB010D50D
:10240C000B6973B94021FFF705FF2860286130B9CB
:10241C000C2333604FF0FF301CB0BDE8F087402335
:10242C006B610023099320238DF8293030234FF062
:10243C0001080397644F8DF82A302346994613F808
:10244C00012B0AB1252AF9D1B9EB040A0BD053465A
:10245C00224629463046FFF769FF013000F0A48080
:10246C00099A5244099299F80030002B00F09C8094
:10247C0000234FF0FF32CDE9052309F10109049344
:10248C0007938DF853301A934C46052214F8011B10
:10249C004D4800F065FA049BD0B9D80644BF202201
:1024AC008DF85320190744BF2B228DF8532099F82F
:1024BC0000202A2A13D04C4600204FF00A0C079A11
:1024CC00214611F8013B303B092B49D968B913E07F
:1024DC00C01B08FA00F01843A1460490D4E7039AF5
:1024EC00111D12680391002A01DB079204E052428D
:1024FC0043F002030792049323782E2B0AD16378BE
:10250C002A2B32D1039B02341A1D1B68039243EA17
:10251C00E3730593DFF8B49003224846217800F06A
:10252C001FFA38B14022049BA0EB090082401343F0
:10253C000134049314F8011B062225488DF8281049
:10254C0000F00EFA002835D0224818BB039B073345
:10255C0023F0070308330393099B034409936CE7A7
:10256C000C4601200CFB0232AAE700234FF00A0CA8
:10257C00194601340593204610F8012B303A092AEC
:10258C0003D9002BC6D00591C4E7044601230CFBEC
:10259C000121F0E703AB00932A4630460E4B04A909
:1025AC00AFF30080421CD7D1AB895B063FF532AF4D
:1025BC00099831E703AB00932A463046064B04A931
:1025CC0000F07EF8EEE700BFDE2B0008E42B0008DD
:1025DC00E82B000800000000392300082DE9F04723
:1025EC00164698468A680B6907469342B8BF13464D
:1025FC00336091F843200C46DDF820900AB101338A
:10260C0033602368990642BF336802333360256810
:10261C0015F0060506D104F1190AE36832689B1A15
:10262C00AB422BDC94F843302268003B18BF0123EB
:10263C00920630D44146384604F14302C847013073
:10264C0023D02368226903F00603042B14BF002552
:10265C0033684FF0000608BFE56804F11A0408BFA0
:10266C00ED1A54F8123C08BF25EAE5759342C4BF35
:10267C009B1AED18B5421AD1002008E001235246EE
:10268C0041463846C847013003D14FF0FF30BDE812
:10269C00F0870135C1E73020E11881F843005A1C5E
:1026AC0094F845102244023382F84310C2E7012308
:1026BC00224641463846C8470130E6D00136D9E7B4
:1026CC002DE9F0430D7E85B0782D904607460C46DB
:1026DC0099460C9E01F1430207D8622D0AD8002DB1
:1026EC0000F0D780582D00F0BC8004F1420684F82D
:1026FC0042503BE0A5F16303152BF6D801A151F82C
:10270C0023F000BF692700087D270008F726000882
:10271C00F7260008F7260008F72600087D27000892
:10272C00F7260008F7260008F7260008F726000809
:10273C0085280008A727000837280008F726000876
:10274C00F7260008A7280008F7260008A727000886
:10275C00F7260008F72600083F28000833681A1DE2
:10276C001B68326004F1420684F842300123A1E078
:10277C0033682068191D3160060601D51D6803E019
:10278C004506FBD5B3F90050002D03DA2D236D421D
:10279C0084F843300A235B4811E02168336808064B
:1027AC0053F8045B02D4490648BFADB23360237EB4
:1027BC0054486F2B5CD10823002184F843106668C1
:1027CC00002EA66005DB21682E4321F00401216058
:1027DC0050D01646B5FBF3F103FB115C10F80CC09E
:1027EC0006F801CDAC4663450D46F3D9082B0BD149
:1027FC002368DB0708D5236961689942DEBF302363
:10280C0006F8013C06F1FF36921B22614346214635
:10281C003846CDF8009003AAFFF7E0FE01304ED108
:10282C004FF0FF3005B0BDE8F083236843F0200380
:10283C0023607825344884F845502368316813F0B8
:10284C00800F51F8045B03D113F0400F18BFADB2E9
:10285C003160D90744BF43F0200323601DB110231E
:10286C00AAE72848E7E7236823F020032360F6E76C
:10287C000A23A1E71646B9E733682568181D616974
:10288C0030602E061B6801D5196002E06806FBD586
:10289C001980002316462361B8E7336800211A1DFE
:1028AC0032601E686268304600F05AF808B1801B2E
:1028BC00606063682361002384F84330A6E73246E6
:1028CC00414638462369C8470130A9D023689B0785
:1028DC0013D4E068039B9842B8BF1846A2E70123C3
:1028EC00324641463846C847013099D00135E36835
:1028FC0003995B1AAB42F2DCEBE7002504F11906F5
:10290C00F5E700BFEF2B0008002C0008884210B53B
:10291C0001EB020402D98442234607D8431EA1428C
:10292C0007D011F8012B03F8012FF8E7024482427B
:10293C0000D110BD13F8011D02F8011DF7E70000CE
:10294C0038B50023054D044608462B60FDF744FFBF
:10295C00431C02D12B6803B1236038BD2802002030
:10296C00034610B5C9B202449342184601D1002067
:10297C0003E0047801338C42F6D110BD0A44914235
:10298C0000F1FF3300D1704710B511F8014B9142A3
:10299C0003F8014FF9D110BD2DE9F041074614465B
:1029AC000D4621B91146BDE8F041FFF733BC2AB9F9
:1029BC00FFF7C6FB25462846BDE8F08100F01AF863
:1029CC008442064602D8B4EB500FF4D82146384660
:1029DC00FFF720FC804608B94546ECE7B442224696
:1029EC00294628BF3246FFF7C9FF29463846FFF76C
:1029FC00A7FBF1E751F8043C181F002BBCBF0B5888
:102A0C00C0187047F8B500BFF8BC08BC9E467047AC
:0C2A1C00F8B500BFF8BC08BC9E4670472F
:102A280057616974696E6720666F722050432E2E55
:102A38002E0D0A0048454C4C4F00000041434B0DF9
:102A48000A00000048454144455220524543454943
:102A58005645440D0A0000004D616769633D253005
:102A6800386C582053697A653D256C75204352436C
:102A78003D2530386C58205665723D256C750D0A19
:102A880000000000524541445920464F5220464C10
:102A98004153482045524153450D0A005550444181
:102AA800544520434F4D504C4554450D0A000000F5
:102AB8004845414445525F4641494C203A20494ED9
:102AC80056414C4944204D414749430D0A000000F6
:102AD8004845414445525F4641494C203A20494EB9
:102AE80056414C49442053495A450D0A00000000FC
:102AF8004845414445525F4641494C203A2041509F
:102B08005020544F4F204C415247450D0A000000B9
:102B18004845414445525F4F4B0D0A00464C4153CE
:102B280048204552415345204641494C45440D0AE9
:102B380000000000464C415348204552415345206F
:102B48004F4B0D0A00000000554152542052454396
:102B580045495645204641494C45440D0A00000068
:102B6800464C415348205752495445204641494C08
:102B780045440D0A000000004649524D5741524550
:102B88002052454345495645440D0A00496E73692C
:102B98006465207468652068617264206675616C7C
:102BA800742068616E646C657200000000000000AB
:102BB80000000000010203040607080900000000E5
:102BC8000102030402030405060708090A0B0C0D99
:102BD8000E0F10100102232D302B2000686C4C00C2
:102BE8006566674546470030313233343536373805
:102BF8003941424344454600303132333435363763
:0C2C0800383961626364656600000000FA
:082C140038D5FF7F010000002C
:042C1C00310100087A
:042C20000D0100089A
:102C240000127A00100000000100000010000020D3
:102C340000000000F000002058010020C001002026
:102C44000000000000000000000000000000000080
:102C54000000000000000000000000000000000070
:102C64000000000000000000000000000000000060
:0C2C740000000000000000000000000054
:040000050800085D8A
:00000001FF
