:020000040800F2
:1000000000500020610900082508000829080008A0
:1000100055080008570800085908000800000000AB
:100020000000000000000000000000005B08000865
:100030005D080008000000005F0800086108000873
:10004000A9090008A9090008A9090008A9090008C8
:10005000A9090008A9090008A9090008A9090008B8
:10006000A9090008A9090008A9090008A9090008A8
:10007000A9090008A9090008A9090008A909000898
:10008000A9090008A9090008A9090008A909000888
:10009000A9090008A9090008A9090008A909000878
:1000A000A9090008A9090008A9090008A909000868
:1000B000A9090008A9090008A9090008A909000858
:1000C000A9090008A9090008A9090008A909000848
:1000D000A9090008A9090008A9090008A909000838
:1000E000A9090008A9090008A909000800000000E2
:1000F0000000000000000000000000000000000000
:0C01000000000000000000005FF808F1A3
:10010C0010B5054C237833B9044B13B10448AFF345
:10011C0000800123237010BD60000020000000004F
:10012C00E420000808B5034B1BB103490348AFF3A7
:10013C00008008BD0000000064000020E4200008DE
:10014C00034613F8012B002AFBD1181A013870470B
:10015C0030B5224C9BB0D4F8005421492A4601A852
:10016C0001F0F2FA01A8FFF7EBFF642382B201A9B8
:10017C001C4801F044FAD4F804441B49224601A857
:10018C0001F0E2FA01A8FFF7DBFF642382B201A9B8
:10019C00144801F034FA72B64FF0E02300221A61D1
:1001AC005A619A61114AC3F8082D85F308886423B3
:1001BC0029220F490B4801F022FAA047642322227E
:1001CC000C49084801F01BFA4FF480610A4800F012
:1001DC0096FE4FF4FA7000F02BFCF5E70040000897
:1001EC00FC2000087C0000201221000800440008BC
:1001FC00322100085C2100080008014000B564238E
:10020C00132247494748A3B001F0F9F94FF0FF33E7
:10021C000522444802A901F040FA0028F6D14248D0
:10022C0000F09FFE0522414902A801F0AFFA002818
:10023C00ECD1642305223E493A4801F0E0F94FF035
:10024C00FF331422374804A901F027FA0028DDD126
:10025C00354800F086FE642311223649314801F0FE
:10026C00CEF9089B34490193079B09A80093DDE95B
:10027C00052301F069FA09A8FFF762FF642382B233
:10028C0009A9284801F0BBF904A800F005FB0028D7
:10029C00BCD1254800F065FE64231722274921486C
:1002AC0001F0ADF900F030F90028AFD11E4800F094
:1002BC0058FE00F04DF80028A8D11B4800F051FE64
:1002CC0004A800F09BF80028A0D104A800F0D8F8EE
:1002DC0000289BD1144800F044FE04A800F042F919
:1002EC00002893D1104800F03CFE642309221449E5
:1002FC000C4801F084F9642311221249094801F0D9
:10030C007EF9642316221049064801F078F964231B
:10031C0016220E49034801F072F9FFF719FF75E731
:10032C007F2100087C000020C400002093210008DD
:10033C00992100089F210008B1210008DA2100084A
:10034C00F2210008FC2100080E22000825220008DA
:10035C0010B5002486B0019400F0FAFB2F230F4A4D
:10036C0001A902A80294CDE9042300F09BFC0446E9
:10037C0058B100F0FFFB642314220949094801F02D
:10038C003EF90124204606B010BD00F0F3FB6423B7
:10039C0010220549034801F032F9F3E70044000844
:1003AC003C2200087C00002051220008F8B50C46C5
:1003BC0007461646002500F0CBFB0134B54205EB91
:1003CC00070103D300F0D6FB002014E06B1C9E4207
:1003DC0014F8012C88BF23784FF001008CBF42EA3F
:1003EC00032242F47F42002300F0F8FB023418B1E0
:1003FC0000F0C0FB0120F8BD0235DFE770B5846862
:10040C00194EC0B03CB9642313221849184801F0A6
:10041C00F6F8204614E0B4F5807F254628BF4FF44B
:10042C0080754FF0FF3369461148AAB201F035F9D7
:10043C0040B1642315220F490D4801F0E0F801206A
:10044C0040B070BD2A4669463046FFF7AFFF6423C3
:10045C0010B114220849EFE705220849044801F0BD
:10046C00CEF82E44641BCDE7004400088D22000812
:10047C007C000020622200087822000899210008E4
:10048C0030B581688FB00446194800F049FA194913
:10049C000246054601A801F057F901A8FFF750FEE6
:1004AC00642382B201A9144801F0A9F8E268134947
:1004BC0001A801F049F901A8FFF742FE642382B2BA
:1004CC0001A90D4801F09BF8E368AB424FF06403BF
:1004DC0007D00C220A49084801F091F801200FB00E
:1004EC0030BD08220749044801F089F80020F6E7DE
:1004FC0000440008A12200087C000020BC22000857
:10050C00D3220008E022000830B50024012587B072
:10051C00019400F01DFB0F4B01A902A80294CDE938
:10052C00043500F0BFFB044658B100F023FB6423F4
:10053C0015220949094801F062F82C46204607B0FB
:10054C0030BD00F017FB642311220549034801F06C
:10055C0056F8F3E700400008E92200087C00002070
:10056C00FF220008014610B514220848FFF71EFFB1
:10057C006423044630B115220549064801F03FF8C2
:10058C00204610BD11220449F7E700BF00400008C7
:10059C00112300087C0000202723000800B591B02F
:1005AC002422002107A801F001F90021142201A83E
:1005BC0001F0FCF80A2310220693012306A8CDE9CA
:1005CC000A320C9300F0D4FC014608B172B6FEE777
:1005DC000F23CDE90300CDE90130059001A800F00F
:1005EC0089FE08B172B6FEE711B000BD30B593B00C
:1005FC0000F0FAF9FFF7D2FF1022002103A801F056
:10060C00D5F84C4B4FF440619A694B4842F02002AC
:10061C009A619A69012502F020020192019A9A6965
:10062C00002442F004029A619B69002203F0040347
:10063C000293029B00F05EFC4FF44063CDE903355E
:10064C0002233D4803A9CDE9054300F07FFB3B4A5B
:10065C003B4B104613604FF4E133C2E901340C23D9
:10066C00C2E90344C2E90534D46100F099FF08B132
:10067C0072B6FEE76423402232498DF803002F48FE
:10068C0000F0BDFF40F6B8332A462C480DF10301AB
:10069C0001F003F82C4CE8B904232C4A2046C4E999
:1006AC00002340F6FF73A36000F032FC08B172B671
:1006BC00FEE7204600F055FC9DF8033003F0DF0305
:1006CC00552B07D164230D2221491C4800F097FFBC
:1006DC00FFF794FD1B2264231E49184800F08FFF7E
:1006EC0000F008F90246B0B964231D221A491348D8
:1006FC0000F085FFFFF72CFD236813B1124800F0C2
:10070C0030FC4FF480610C4800F0F9FB4FF47A7028
:10071C0000F08EF9F0E7114903A801F015F803A8D1
:10072C00FFF70EFD642382B203A9044800F067FFB3
:10073C00E2E700BF00100240000801407C000020EE
:10074C000044004039230008C40000200030004061
:10075C007A23000888230008A4230008C223000879
:10076C000E4B82B09A6942F001029A619A6902F0CA
:10077C0001020092009ADA6942F08052DA61DB6978
:10078C00074A03F080530193019B536823F0E06305
:10079C0043F00073536002B0704700BF001002407A
:1007AC000000014010B5044686B01022002102A8BA
:1007BC0000F0FCFF2268164B9A4226D103F5E63373
:1007CC00DA69144842F40032DA61DA6902A902F4F7
:1007DC0000320092009A9A6942F004029A619B6975
:1007EC00042203F004030193019B0223CDE90223AD
:1007FC000323059300F0AAFA082100230548CDE94C
:10080C00021302A9049300F0A1FA06B010BD00BFB8
:10081C000044004000080140FEE7000008B5322209
:10082C0064230649064800F0EAFE4FF4806105484F
:10083C0000F065FBFA2000F0FBF8F6E7FB2300085C
:10084C007C00002000080140FEE7FEE7FEE7704751
:10085C007047704700F0DAB80A4A0346106810B5C2
:10086C0008B9094810600949094C0344091B8B421B
:10087C0006D900F0A3FF0C2303604FF0FF3010BD2E
:10088C001360FCE7D0000020400200200050002044
:10089C00000400007047000008B542680F4B9A42F4
:1008AC0007D064231D220E490E4800F0A8FE01203B
:1008BC0008BD83681BB964231C220B49F4E7B3F50C
:1008CC003C4F4FF0640302D91D220849ECE70B2280
:1008DC000749044800F093FE0020E9E7F0DEBC1A5B
:1008EC00192400087C000020372400085424000838
:1008FC0072240008084B094A5968914209D1D3F86F
:10090C00040400F07F40B0F1006018BF01204000EB
:10091C0070470120704700BF00400008F0DEBC1A91
:10092C0070B54FF0FF330024094E8C4201D1D843EF
:10093C0070BD225C5340082243F30005013A354058
:10094C0012F0FF0285EA5303F6D10134EDE700BF44
:10095C002083B8EDFFF79EFF0B480C490C4A00238F
:10096C0002E0D458C4500433C4188C42F9D3094A59
:10097C00094C002301E013600432A242FBD300F0C7
:10098C0023FFFFF733FE7047000000205C000020BF
:10099C00EC2400086000002040020020FEE700006C
:1009AC0038B50E4B05461A784FF47A73B3FBF2F355
:1009BC000B4A1068B0FBF3F000F08EF8044658B9FF
:1009CC000F2D09D8024629464FF0FF3000F054F89D
:1009DC002046044B1D6038BD0120FCE704000020BC
:1009EC000000002008000020074A08B51368032007
:1009FC0043F01003136000F02DF80F20FFF7D0FF29
:100A0C00FFF7AEFE002008BD00200240034A044B55
:100A1C0011681B780B441360704700BFD400002092
:100A2C0004000020014B1868704700BFD400002060
:100A3C0038B50446FFF7F6FF0546631C1EBF044B92
:100A4C001B78E418FFF7EEFF431BA342FAD338BD23
:100A5C000400002007490302CA6803F4E06322F48F
:100A6C00E0621204120C134343F0BF6343F40033EF
:100A7C00CB60704700ED00E0154B30B5DC68C4F37B
:100A8C000224C4F10703251D042B28BF0423062DC3
:100A9C004FF0FF3594BF0024033C05FA03F321EA21
:100AAC000303A54022EA0502A340002843EA0203FF
:100ABC00ACBF00F16040074A4FEA0313DBB2ABBF97
:100ACC0000F5614000F00F0080F80033135430BD86
:100ADC0000ED00E014ED00E00138B0F1807F0BD2A6
:100AEC004FF0E023F021054A586182F823100020D2
:100AFC00072298611A6170470120704700ED00E0F1
:100B0C00114AD36813F0100305D01049CB6943F098
:100B1C000203CB611023D268500706D50B4943F072
:100B2C000403CA6942F00102CA61074AD169C907C4
:100B3C0008D50648C16941F00401C161D16921F0B1
:100B4C000101D161D360704700200240D800002021
:100B5C00064B186910F0800007D0054A5A6002F164
:100B6C0088325A601869C0F3C010704700200240E8
:100B7C0023016745034A0020136943F08003136186
:100B8C00704700BF0020024070B50546FFF74AFFD2
:100B9C000646114CE368D80712D4E368990644BFA3
:100BAC002023E360E368DA0606D4E369DB0703D4A9
:100BBC00E06810F0040007D0FFF7A2FF012003E06B
:100BCC006B1CE7D00DB9032070BDFFF72BFF801B0A
:100BDC00A842DFD9F7E700BF002002402DE9F84F0B
:100BEC00DFF894A01F469AF818300546012B88466A
:100BFC0091463FD001234CF250308AF81830FFF761
:100C0C00C3FF90BB012D03D0022D14BF0425022578
:100C1C0000263346DFF864B03401C4F12001A4F19E
:100C2C00200207FA01F129FA04F4CAF81C300C432B
:100C3C0027FA02F21443DBF81020A4B242F00102AE
:100C4C00CBF810204CF2503028F81640FFF79CFFE0
:100C5C00DBF8102022F00102CBF8102028B9013665
:100C6C00F2B295424FF00003D6D800238AF8183020
:100C7C00BDE8F88F0220FBE7D800002000200240DE
:100C8C000022064BDA61064B1A6942F002021A6125
:100C9C0058611A6942F040021A617047D80000206E
:100CAC00002002402DE9F041264F05463B7E884648
:100CBC00012B44D001243C7603684CF25030022BBB
:100CCC001AD1FFF761FF20B1012000233B76BDE86C
:100CDC00F0811D4CF86123694CF2503043F0040351
:100CEC002361236943F040032361FFF74DFF236920
:100CFC0023F004032361E8E7FFF746FF0028E3D164
:100D0C004FF0FF33C8F800302046AE680E4CD5E9E2
:100D1C00023203EB8223B342D7D93046FFF7B0FF40
:100D2C004CF25030FFF730FF236923F002032361AC
:100D3C0010B1C8F80060C8E706F58066E7E7022046
:100D4C00C5E700BFD8000020002002402DE9F74F76
:100D5C0000244FF00F0E2646DFF884C1614B00F1E2
:100D6C0004080A6832FA06F502D103B0BDE8F08F28
:100D7C00012505FA06F702EA070537EA020276D1E1
:100D8C004A68032A07D8013A022A00F28380DFE876
:100D9C0002F091969C00122A00F0948069D8112AD6
:100DAC0000F08A80FF2D94BF8146C1464FEA86022F
:100DBC00D9F8007088BF203A0EFA02FA27EA0A071F
:100DCC0004FA02F21743C9F80070D1F8049019F034
:100DDC00805F4CD0DCF8182026F0030742F00102AB
:100DEC00CCF81820DCF8182007F1804702F001023B
:100DFC00019207F5803706F0030A019A4FEA8A0A36
:100E0C00BA680EFA0AFB22EA0B0B374A904260D002
:100E1C0002F5806290425ED002F5806290425CD016
:100E2C0002F58062904214BF0422032202FA0AF2F5
:100E3C0042EA0B02BA609A6819F4801F14BF2A4365
:100E4C00AA439A60DA6819F4001F14BF2A43AA4314
:100E5C00DA605A6819F4003F14BF2A43AA435A6057
:100E6C001A6819F4803F14BF2A43AA431A6001364A
:100E7C0077E7DFF878904A450CD014D8A9F580199B
:100E8C004A4507D009F570294A4503D0A9F58019C0
:100E9C004A4587D18A68D2B1012A4FF008040CBFA9
:100EAC00076147617EE7DFF848904A45F2D009F5C3
:100EBC008039EDE7CC6875E7CC68043472E7CC6810
:100ECC0008346FE7CC680C346CE700246AE7042420
:100EDC0068E70022AAE70122A8E70222A6E700BFE2
:100EEC0000100240000401400008014000002210E4
:100EFC00000031100AB1016170470904FBE7C368B7
:100F0C0001EA030221EA030141EA0241016170474F
:100F1C0070B5044618B34CF6CC42036841F23C362B
:100F2C001A6045F255521A6042685A6082689A609B
:100F3C00FFF778FD05462268D06810F0030003D156
:100F4C004AF6AA23136070BDFFF76CFD401BB0423C
:100F5C00F1D92368DB689B07EDD00320F3E7012070
:100F6C00F1E74AF6AA22036800201A6070470000D5
:100F7C002DE9F341054638B30368DB0710D42B6821
:100F8C009F075ED42B68190700F195802B685A07D0
:100F9C0000F1C180EB69002B40F02C81002029E08E
:100FAC00904C636803F00C03042B07D0636803F0C8
:100FBC000C03082B0AD16368DE0307D523689C0356
:100FCC00DDD56B68002BDAD1012013E06B68B3F52B
:100FDC00803F12D1236843F480332360FFF722FD56
:100FEC00064623689803CAD4FFF71CFD801B6428AF
:100FFC00F7D9032002B0BDE8F0819BB9236823F434
:10100C0080332360236823F480232360FFF70AFDD9
:10101C00064623689903B2D5FFF704FD801B6428AC
:10102C00F7D9E6E7B3F5A02F236803D143F4802367
:10103C002360CFE723F480332360236823F48023D9
:10104C00CBE7684C636813F00C0F07D0636803F0B0
:10105C000C03082B10D16368DA030DD423689B07AB
:10106C0002D52B69012BAFD123686A6923F0F803F1
:10107C0043EAC203236085E72A695B4B6AB101220C
:10108C001A60FFF7CFFC064623689F07ECD4FFF7E6
:10109C00C9FC801B0228F7D9ABE71A60FFF7C2FC2A
:1010AC000646236898077FF56DAFFFF7BBFC801BE6
:1010BC000228F6D99DE7AA694A4E4B4BE2B10122B0
:1010CC00C3F88024FFF7AEFC0446736A9B070DD56A
:1010DC004FF4FA52454B1B68B3FBF2F3019300BF7C
:1010EC00019B5A1E0192002BF9D14FE7FFF79AFC96
:1010FC00001B0228E9D97CE7C3F88024FFF792FC97
:10110C000446736A9F077FF541AFFFF78BFC001B0A
:10111C000228F6D96DE7334CE369D80024D40127B3
:10112C00E36943F08053E361E36903F08053009378
:10113C00009B2F4E3368D90518D5EB68012B26D1AF
:10114C00236A43F001032362FFF76CFC41F28838F9
:10115C000646236A9B073FD5002F3FF41BAFE3697C
:10116C0023F08053E36115E70027E2E7336843F48B
:10117C0080733360FFF756FC80463368DA05DCD4A5
:10118C00FFF750FCA0EB08006428F6D931E7ABB9A7
:10119C00236A41F2883823F001032362236A23F087
:1011AC0004032362FFF73EFC0646236A9807D3D557
:1011BC00FFF738FC801B4045F7D91AE7052B236A4B
:1011CC0003D143F004032362BAE723F00103236243
:1011DC00236A23F00403B6E7FFF724FC801B404589
:1011EC00B7D906E700100240000042420000002080
:1011FC00007000402A4C626802F00C02082A3ED0B3
:10120C000022022B274B1A662CD1FFF70BFC06464B
:10121C002368990120D42B6AB3F5803F05D162680D
:10122C00A96822F400320A436260696A62680B435F
:10123C0022F474121343012263601A4B1A66FFF7EF
:10124C00F1FB054623689A013FF5A8AEFFF7EAFBD0
:10125C00401B0228F6D9CCE6FFF7E4FB801B0228E2
:10126C00D6D9C6E6FFF7DEFB054623689B017FF562
:10127C0095AEFFF7D7FB401B0228F6D9B9E6012B38
:10128C003FF4A2AE60682B6A00F480329A427FF47D
:10129C009BAE6B6A00F47010C01A18BF0120A9E64F
:1012AC0000100240000042420D4A536803F00C014A
:1012BC00082912D10B48C3F38341DB03405C09D5E9
:1012CC005368094AC3F340435043084AD35CB0FB0C
:1012DC00F3F07047064B584370470348704700BF04
:1012EC0000100240CB24000800127A00C924000828
:1012FC0000093D002DE9F0410D46044610B90120CE
:10130C00BDE8F081444A136803F007038B4228D3ED
:10131C0021688E0730D4CA0743D43F4A136803F0C0
:10132C000703AB4265D822683C4D12F0040F6CD118
:10133C00130706D56B68226923F4605343EAC20392
:10134C006B60FFF7B1FF6B68354AC3F30313D35CD3
:10135C00D840344B1860344B1868FFF721FB002041
:10136C00CEE7136823F007030B431360136803F0F5
:10137C0007038B42C3D1CBE7284B11F0040F1EBFE0
:10138C005A6842F4E0625A60080742BF5A6842F455
:10139C0060525A605A68A06822F0F00202435A6008
:1013AC00B9E762681D4E012A33681AD113F4003F65
:1013BC00A5D0736841F2883823F00303134373609C
:1013CC00FFF730FB07467368626803F00C03B3EB5E
:1013DC00820FA2D0FFF726FBC01B4045F3D9032098
:1013EC008EE7022A02D113F0007FE1E713F0020F1F
:1013FC00DEE7136823F007032B431360136803F035
:10140C000703AB427FF47BAF8DE76B68E16823F495
:10141C00E0630B436B608BE700200240001002403E
:10142C00B92400080000002008000020044B054AE5
:10143C005B68C3F30223D35C034A1068D84070473F
:10144C0000100240B124000800000020044B054AA3
:10145C005B68C3F3C223D35C034A1068D84070475F
:10146C0000100240B124000800000020026802F1C4
:10147C000C0353E8003F23F490730C3242E8003124
:10148C0002680029F2D102F1140353E8003F23F063
:10149C00010302F1140C4CE800310029F3D1036B69
:1014AC00012B0BD102F10C0353E8003F23F0100386
:1014BC0002F10C0C4CE800310029F3D1202380F808
:1014CC00423000230363704710B504460368C168BB
:1014DC001A6922F440520A431A6182680069D96879
:1014EC000243606921F4B05121F00C0102430A431C
:1014FC00DA605A69A16922F440720A435A610E4AB1
:10150C00934215D1FFF7A2FF192343436268206869
:10151C009200B3FBF2F36422B3FBF2F102FB113342
:10152C001B013233B3FBF2F303EB0113836010BDE9
:10153C00FFF77CFFE8E700BF00380140F7B5054630
:10154C000C4617461E462A68136834EA030301D179
:10155C00002021E0701CF7D0FFF764FAC01B864214
:10156C001CD3DEB12B68DA685107ECD5802CEAD09D
:10157C00402CE8D01A681207E5D5002401941A68AB
:10158C00284601925B680193019BFFF76FFF0823CC
:10159C0001206B6485F8404003B0F0BD0320FBE7ED
:1015AC0010B5044648B390F8413003F0FF021BB964
:1015BC0080F84020FFF7F6F82423226884F84130A5
:1015CC00D368204623F40053D360FFF77DFF2368D4
:1015DC0000201A6922F490421A615A6922F02A02F8
:1015EC005A61DA6842F40052DA602023606484F8AD
:1015FC00413084F84230606310BD0120FCE72DE9D6
:10160C00F843984690F841300446202B0E46174676
:10161C003FD100293FD0002A3DD02123002545642D
:10162C0080F84130FFF7FEF9A3688146B3F5805F7F
:10163C00A784E78403D123690BB935461E46E38C96
:10164C009BB253B943464A4640212046FFF776FFEA
:10165C00202350B984F841300AE043464A468021A1
:10166C002046FFF76BFF28B12023032084F841307C
:10167C00BDE8F88322684EB935F8023BC3F3080382
:10168C005360E18C013989B2E184D8E716F8013B4B
:10169C00F6E70220ECE70120EAE72DE9F8431F46C4
:1016AC0090F842300446202B0E46914648D1002932
:1016BC0048D0002A46D022230025456480F84230C9
:1016CC000563FFF7AFF9A3688046B3F5805FA4F814
:1016DC002C90A4F82E9003D123690BB935461E46E5
:1016EC00E08D80B218B9202384F842300AE03B46E2
:1016FC00424620212046FFF721FF28B1202303205A
:10170C0084F84230BDE8F88323684EB95B68C3F3B4
:10171C00080325F8023BE38D013B9BB2E385DFE731
:10172C00A268B2F5805F02D032B9226922B9596839
:10173C00C9B206F8011BEEE7596801F07F01F8E722
:10174C000220DFE70120DDE70EB46FF0004110B599
:10175C0000249DB01FAB029006900791049109489C
:10176C00094953F8042B0591006802A901931B94B5
:10177C0000F0A6F9029B1C701DB0BDE8104003B030
:10178C00704700BF0C0000200802FFFF10B50139A4
:10179C000244904201D1002005E0037811F8014F7A
:1017AC00A34201D0181B10BD0130F2E703460244DE
:1017BC00934200D1704703F8011BF9E7014B1868FD
:1017CC00704700BF0C00002070B500260C4D0D4B6F
:1017DC005B1B9C10A64209D1002600F07DFC0A4D33
:1017EC000A4B5B1B9C10A64205D170BD55F8043BFF
:1017FC0098470136EEE755F8043B98470136F2E777
:10180C00E4240008E4240008E4240008E824000888
:10181C007047704738B50546002940D051F8043C54
:10182C000C1F002BB8BFE41800F0DEF81C4A13683C
:10183C0033B9636014602846BDE8384000F0DAB86C
:10184C00A34208D9206821188B4201BF19685B6834
:10185C0009182160EDE71A465B680BB1A342FAD96F
:10186C0011685018A0420BD12068014450188342D3
:10187C001160E0D118685B68084410605360DAE7C7
:10188C0002D90C232B60D6E7206821188B4201BFAC
:10189C0019685B680918216063605460CBE738BD38
:1018AC003C02002070B50F4E0C463168054611B94C
:1018BC0000F0B0FB30602146284600F0ABFB431C27
:1018CC0003D14FF0FF34204670BDC41C24F0030438
:1018DC00A042F8D0211A284600F09CFB0130F2D12E
:1018EC00EFE700BF380200202DE9F843CD1C25F0AE
:1018FC00030508350C2D38BF0C25002D064601DBE1
:10190C00A94204D90C2333600020BDE8F883DFF82A
:10191C00D48000F069F8D8F800301C4644BB294646
:10192C003046FFF7BFFF431C044658D1D8F800409F
:10193C002746002F43D1002C4BD023683946304624
:10194C0004EB030900F066FB814542D12168304667
:10195C006D1A2946FFF7A6FF01303AD023682B44B5
:10196C002360D8F800305A6862BBC8F800700FE0EA
:10197C002268521B20D40B2A17D96119A342256067
:10198C0018BF5960636808BFC8F8001062514B60FB
:10199C00304600F02FF804F10B00231D20F0070057
:1019AC00C21A1CBF1B1AA350AFE76268A3420CBF3C
:1019BC00C8F800205A60EBE723466468AEE73C4663
:1019CC007F68B6E71A465B68A342FBD100235360DD
:1019DC00DEE70C233046336000F00CF894E705602A
:1019EC00D6E700BF3C0200200148FFF711BF00BF43
:1019FC00340200200148FFF70CBF00BF3402002066
:101A0C002DE9F0471F468E688246BE420C46904632
:101A1C00334653D8B1F90C0010F4906F2BD0656994
:101A2C002368096905EB4505A3EB010905EBD575A1
:101A3C007B1C6D104B44AB422A4684BF1D462A4684
:101A4C00430527D511465046FFF74EFF064658B3BF
:101A5C004A46216900F0FCFAA38923F4906343F011
:101A6C008003A38126614E4426603B463E46656159
:101A7C00A5EB0905A5601F463A464146206800F0D3
:101A8C00AFFA0020A3689B1BA36023683B44236030
:101A9C00BDE8F087504600F0E9FA06460028E1D18F
:101AAC0050462169FFF7B6FE0C23CAF80030A38913
:101ABC004FF0FF3043F04003A381E9E73E46DBE7FC
:101ACC002DE9F0471F468B8906461B060D4614462A
:101ADC009CB010D50B6973B94021FFF705FF286046
:101AEC00286130B90C2333604FF0FF301CB0BDE8D7
:101AFC00F08740236B610023099320238DF8293054
:101B0C0030234FF001080397644F8DF82A30234699
:101B1C00994613F8012B0AB1252AF9D1B9EB040A1D
:101B2C000BD05346224629463046FFF769FF013059
:101B3C0000F0A480099A5244099299F80030002BC5
:101B4C0000F09C8000234FF0FF32CDE9052309F112
:101B5C000109049307938DF853301A934C460522D0
:101B6C0014F8011B4D4800F065FA049BD0B9D80657
:101B7C0044BF20228DF85320190744BF2B228DF827
:101B8C00532099F800202A2A13D04C4600204FF0FD
:101B9C000A0C079A214611F8013B303B092B49D915
:101BAC0068B913E0C01B08FA00F01843A146049072
:101BBC00D4E7039A111D12680391002A01DB0792E6
:101BCC0004E0524243F002030792049323782E2B35
:101BDC000AD163782A2B32D1039B02341A1D1B685D
:101BEC00039243EAE3730593DFF8B490032248466B
:101BFC00217800F01FFA38B14022049BA0EB0900B9
:101C0C00824013430134049314F8011B0622254827
:101C1C008DF8281000F00EFA002835D0224818BB99
:101C2C00039B073323F0070308330393099B0344F7
:101C3C0009936CE70C4601200CFB0232AAE7002347
:101C4C004FF00A0C194601340593204610F8012B6D
:101C5C00303A092A03D9002BC6D00591C4E70446B3
:101C6C0001230CFB0121F0E703AB00932A4630461D
:101C7C000E4B04A9AFF30080421CD7D1AB895B0695
:101C8C003FF532AF099831E703AB00932A46304653
:101C9C00064B04A900F07EF8EEE700BF7E24000896
:101CAC008424000888240008000000000D1A000895
:101CBC002DE9F047164698468A680B690746934209
:101CCC00B8BF1346336091F843200C46DDF82090E2
:101CDC000AB1013333602368990642BF336802337B
:101CEC003360256815F0060506D104F1190AE3687E
:101CFC0032689B1AAB422BDC94F843302268003BD1
:101D0C0018BF0123920630D44146384604F14302F1
:101D1C00C847013023D02368226903F00603042B43
:101D2C0014BF002533684FF0000608BFE56804F1C6
:101D3C001A0408BFED1A54F8123C08BF25EAE575E1
:101D4C009342C4BF9B1AED18B5421AD1002008E08B
:101D5C000123524641463846C847013003D14FF063
:101D6C00FF30BDE8F0870135C1E73020E11881F87C
:101D7C0043005A1C94F845102244023382F8431055
:101D8C00C2E70123224641463846C8470130E6D017
:101D9C000136D9E72DE9F0430D7E85B0782D9046BC
:101DAC0007460C4699460C9E01F1430207D8622D5A
:101DBC000AD8002D00F0D780582D00F0BC8004F11B
:101DCC00420684F842503BE0A5F16303152BF6D88C
:101DDC0001A151F823F000BF3D1E0008511E000860
:101DEC00CB1D0008CB1D0008CB1D0008CB1D000827
:101DFC00511E0008CB1D0008CB1D0008CB1D000890
:101E0C00CB1D0008591F00087B1E00080B1F000883
:101E1C00CB1D0008CB1D00087B1F0008CB1D000844
:101E2C007B1E0008CB1D0008CB1D0008131F0008EB
:101E3C0033681A1D1B68326004F1420684F8423084
:101E4C000123A1E033682068191D3160060601D515
:101E5C001D6803E04506FBD5B3F90050002D03DAED
:101E6C002D236D4284F843300A235B4811E021682E
:101E7C003368080653F8045B02D4490648BFADB278
:101E8C003360237E54486F2B5CD10823002184F8E7
:101E9C0043106668002EA66005DB21682E4321F0F6
:101EAC000401216050D01646B5FBF3F103FB115C25
:101EBC0010F80CC006F801CDAC4663450D46F3D9BD
:101ECC00082B0BD12368DB0708D52369616899427D
:101EDC00DEBF302306F8013C06F1FF36921B22616F
:101EEC00434621463846CDF8009003AAFFF7E0FEA2
:101EFC0001304ED14FF0FF3005B0BDE8F0832368C0
:101F0C0043F0200323607825344884F84550236837
:101F1C00316813F0800F51F8045B03D113F0400FBC
:101F2C0018BFADB23160D90744BF43F02003236022
:101F3C001DB11023AAE72848E7E7236823F0200304
:101F4C002360F6E70A23A1E71646B9E7336825684C
:101F5C00181D616930602E061B6801D5196002E0FE
:101F6C006806FBD51980002316462361B8E7336851
:101F7C0000211A1D32601E686268304600F05AF863
:101F8C0008B1801B606063682361002384F84330D0
:101F9C00A6E73246414638462369C8470130A9D0E6
:101FAC0023689B0713D4E068039B9842B8BF18467C
:101FBC00A2E70123324641463846C847013099D042
:101FCC000135E36803995B1AAB42F2DCEBE70025C1
:101FDC0004F11906F5E700BF8F240008A0240008BF
:101FEC00884210B501EB020402D98442234607D87B
:101FFC00431EA14207D011F8012B03F8012FF8E77B
:10200C000244824200D110BD13F8011D02F8011DDB
:10201C00F7E7000038B50023054D044608462B6051
:10202C00FEF71AFC431C02D12B6803B1236038BDA8
:10203C0030020020034610B5C9B202449342184640
:10204C0001D1002003E0047801338C42F6D110BD9D
:10205C000A44914200F1FF3300D1704710B511F8DA
:10206C00014B914203F8014FF9D110BD2DE9F0411C
:10207C00074614460D4621B91146BDE8F041FFF75D
:10208C0033BC2AB9FFF7C6FB25462846BDE8F081CC
:10209C0000F01AF88442064602D8B4EB500FF4D87C
:1020AC0021463846FFF720FC804608B94546ECE748
:1020BC00B4422246294628BF3246FFF7C9FF2946BB
:1020CC003846FFF7A7FBF1E751F8043C181F002B2B
:1020DC00BCBF0B58C0187047F8B500BFF8BC08BCA3
:1020EC009E467047F8B500BFF8BC08BC9E467047CA
:1020FC004A554D503A204D5350203D2030782530D4
:10210C00386C580D0A004A554D503A2052455345EB
:10211C00545F48414E444C4552203D203078253088
:10212C00386C580D0A004A554D503A2043616C6C7E
:10213C00696E67206170706C69636174696F6E2081
:10214C0052657365745F48616E646C65720D0A004C
:10215C004A554D503A2052657475726E656420660E
:10216C00726F6D206170706C69636174696F6E2140
:10217C000D0A0057616974696E6720666F72205092
:10218C00432E2E2E0D0A00424F4F54310041434B2B
:10219C000D0A004845414445522052454345495695
:1021AC0045440D0A004D616769633D2530386C5814
:1021BC002053697A653D256C75204352433D25308B
:1021CC00386C58205665723D256C750D0A005245C9
:1021DC0041445920464F5220464C415348204552C9
:1021EC004153450D0A00435243204F4B200D0A002A
:1021FC0055504441544520434F4D504C4554450D8A
:10220C000A005354415254494E47204150504C49B6
:10221C00434154494F4E0D0A004245464F5245200A
:10222C004A554D502046554E4354494F4E0D0A00C9
:10223C00464C415348204552415345204641494C58
:10224C0045440D0A00464C415348204552415345E4
:10225C00204F4B0D0A0055415254205245434549DD
:10226C005645204641494C45440D0A00464C4153C5
:10227C0048205752495445204641494C45440D0A83
:10228C00004649524D574152452052454345495607
:10229C0045440D0A0043616C63756C617465642080
:1022AC00435243203D2030782530386C580D0A00BD
:1022BC0052656369766564204352433D203078252E
:1022CC0030386C580D0A00435243204641494C4566
:1022DC00440D0A00435243204F4B0D0A0048454120
:1022EC00444552204552415345204641494C4544B2
:1022FC000D0A004845414445522045524153452062
:10230C004F4B0D0A00484541444552205752495401
:10231C0045204641494C45440D0A00484541444539
:10232C0052205752495445204F4B0D0A00507265AC
:10233C007373205520746F20656E74657220666906
:10234C00726D7761726520757064617465206D6F54
:10235C0064652077697468696E67203320736563E0
:10236C0020666F72207570646174650D0A0055509B
:10237C0044415445204D4F44450D0A007665727911
:10238C0066696E67206170706C69636174696F6EE9
:10239C00202E2E2E200D0A004150504C4943415402
:1023AC00494F4E2056414C4944202D204A554D5002
:1023BC00494E470D0A004E4F2056414C494420418E
:1023CC0050504C49434154494F4E2028636F64652B
:1023DC0020256429202D2073746179696E6720692A
:1023EC006E20626F6F746C6F616465720D0A0049C8
:1023FC006E73696465207468652068617264206618
:10240C0075616C742068616E646C6572004845413E
:10241C004445525F4641494C203A20494E56414C66
:10242C004944204D414749430D0A00484541444524
:10243C00525F4641494C203A20494E56414C494442
:10244C002053495A450D0A004845414445525F46C0
:10245C0041494C203A2041505020544F4F204C4180
:10246C005247450D0A004845414445525F4F4B0DBC
:10247C000A00232D302B2000686C4C0065666745E4
:10248C0046470030313233343536373839414243E0
:10249C004445460030313233343536373839616291
:1024AC006364656600000000000102030400000084
:1024BC0000000000000102030406070809010202E3
:1024CC00030405060708090A0B0C0D0E0F1010006B
:0824DC0070DCFF7F010000002D
:0424E40031010008BA
:0424E8000D010008DA
:1024EC0000127A0001000000100000001000002013
:1024FC0000000000F800002060010020C80100204E
:10250C0000000000000000000000000000000000BF
:10251C0000000000000000000000000000000000AF
:10252C00000000000000000000000000000000009F
:0C253C0000000000000000000000000093
:040000050800096185
:00000001FF
